:100000000C948B000C94AA000C94AA000C94AA00E7
:100010000C94AA000C94AA000C94AA000C94AA00B8
:100020000C94AA000C94AA000C94AA000C94AA00A8
:100030000C94AA000C94D9020C94AA000C94AA0067
:100040000C94AA000C94AA000C94AA000C94AA0088
:100050000C94AA000C94AA000C94AA000C94AA0078
:100060000C94AA000C94AA000C94AA000C94AA0068
:100070000C94AA000C94AA000C94AA000C94AA0058
:100080000C94AA000C94AA000C94AA0059049C0495
:100090009C049C049C049C049C049C049C049C0460
:1000A0009C049C049C049C049C049C049C049C0450
:1000B0009C049C049C049C049C049C049C049C0440
:1000C0009C049C049C049C049C049C049C049C0430
:1000D0009C0498049C049C049C049C049C049C0424
:1000E00091049C049C049C049C049C0495045D0461
:1000F0006104650469046D047104750479047D0468
:100100009C049C049C049C049C049C049C0481040A
:10011000850489048D0411241FBECFEFD0E4DEBF17
:10012000CDBF11E0A0E0B1E0EAE8FDE000E00BBFE8
:1001300002C007900D92AC31B107D9F721E0ACE1D4
:10014000B1E001C01D92AC35B207E1F70E94AF04E7
:100150000C94C3060C940000CF93DF9300D01F9241
:10016000CDB7DEB789837B836A8389818A3031F496
:100170008A819B81BC018DE00E94AC0080EC90E004
:10018000FC018081882F90E080729927892BB1F340
:1001900086EC90E02981FC01208380E090E00F90C4
:1001A0000F900F90DF91CF910895CF93DF9300D000
:1001B0001F92CDB7DEB789836A834B838B818823F7
:1001C00071F08A81282F30E081E090E002C0880F32
:1001D000991F2A95E2F7982F8981892B0EC08A8171
:1001E000282F30E081E090E002C0880F991F2A9507
:1001F000E2F7982F9095898189230F900F900F90A7
:10020000DF91CF910895CF93DF9300D0CDB7DEB7C4
:1002100089836A838A81282F30E081E090E002C0E0
:10022000880F991F2A95E2F7982F898189230F90CB
:100230000F90DF91CF9108950F931F93CF93DF938A
:10024000CDB7DEB708E210E040E064E08FEF0E9437
:10025000D500F8018083000086E290E0FC018081F7
:10026000809560E00E940301882311F081E3D3C0F0
:1002700086E290E0FC018081809561E00E940301AC
:10028000882311F084E3C7C086E290E0FC018081FE
:10029000809562E00E940301882311F087E3BBC0D0
:1002A00086E290E0FC018081809563E00E9403017A
:1002B000882311F08AE2AFC008E210E040E065E078
:1002C0008FEF0E94D500F8018083000086E290E065
:1002D000FC018081809560E00E940301882311F079
:1002E00082E399C086E290E0FC018081809561E024
:1002F0000E940301882311F085E38DC086E290E01F
:10030000FC018081809562E00E940301882311F046
:1003100088E381C086E290E0FC018081809563E003
:100320000E940301882311F080E375C008E210E009
:1003300040E066E08FEF0E94D500F8018083000066
:1003400086E290E0FC018081809560E00E940301DC
:10035000882311F083E35FC086E290E0FC01808196
:10036000809561E00E940301882311F086E353C069
:1003700086E290E0FC018081809562E00E940301AA
:10038000882311F089E347C086E290E0FC01808178
:10039000809563E00E940301882311F083E23BC053
:1003A00008E210E040E067E08FEF0E94D500F8011E
:1003B0008083000086E290E0FC018081809560E00F
:1003C0000E940301882311F081E425C086E290E0B9
:1003D000FC018081809561E00E940301882311F077
:1003E00082E419C086E290E0FC018081809562E0A1
:1003F0000E940301882311F083E40DC086E290E09F
:10040000FC018081809563E00E940301882311F044
:1004100084E401C080E0DF91CF911F910F91089596
:10042000CF93DF93CDB7DEB72C970FB6F894DEBF2E
:100430000FBECDBF6D837E838F83988729873A87D0
:100440004B875C878D819E81AF81B88529853A85F0
:100450004B855C85BC01CD010E949806DC01CB0177
:1004600089839A83AB83BC8389819A81AB81BC8168
:10047000892B8A2B8B2B29F489859A85AB85BC85A2
:1004800011C089859A85AB85BC858D839E83AF839A
:10049000B88789819A81AB81BC8189879A87AB872C
:1004A000BC87D0CFBC01CD012C960FB6F894DEBF2F
:1004B0000FBECDBFDF91CF910895CF93DF9300D0D2
:1004C00000D0CDB7DEB769837A838B839C83898123
:1004D0009A81AB81BC8180930E0190930F01A09310
:1004E0001001B093110180910E0190910F01A09124
:1004F0001001B091110180931D0190931E01A093F2
:100500001F01B093200100000F900F900F900F90EB
:10051000DF91CF910895CF93DF93CDB7DEB781E818
:1005200090E02BE0FC01208388E890E02DE730E0AC
:10053000FC01318320838FE690E022E0FC012083E0
:1005400084E890E0FC011182108280910E0190916C
:100550000F01A0911001B091110180931D019093A2
:100560001E01A0931F01B09320018FE590E02FE5BD
:1005700030E0F90120812068FC0120830000DF9138
:10058000CF910895CF93DF93CDB7DEB781E890E0A8
:10059000FC0110820000DF91CF910895CF93DF938B
:1005A000CDB7DEB781E080931C010000DF91CF91D1
:1005B00008951F920F9200905F000F9211240090F7
:1005C0005B000F922F933F934F935F936F937F93B3
:1005D0008F939F93AF93BF93EF93FF93CF93DF934B
:1005E000CDB7DEB780911D0190911E01A0911F0132
:1005F000B09120010197A109B10980931D01909349
:100600001E01A0931F01B093200180911D019091C4
:100610001E01A0911F01B0912001892B8A2B8B2BE9
:1006200091F40E94CE0280910E0190910F01A09151
:100630001001B091110180931D0190931E01A093B0
:100640001F01B09320010000DF91CF91FF91EF9146
:10065000BF91AF919F918F917F916F915F914F91DA
:100660003F912F910F9000925B000F9000925F00DE
:100670000F901F901895CF93DF9300D01F92CDB7A6
:10068000DEB79B838A8380E290E0FC018081882F23
:1006900090E08170992721E0892B09F020E02983DF
:1006A0008A819B818130910579F08230910589F0B2
:1006B000892BC9F481E09981913009F080E0882F7D
:1006C00090E09B838A8312C082E090E09B838A83C0
:1006D0000DC081E09981992309F480E0882F90E092
:1006E0009B838A8303C01B821A8200008A819B81BC
:1006F000019749F49091240181E0992309F080E069
:100700008093240101C000008A819B810F900F908B
:100710000F90DF91CF910895CF93DF9300D0CDB7A5
:10072000DEB79A83898389819A81009719F00197AE
:1007300061F016C09091240181E0992309F080E0D6
:10074000882F90E09A8389830EC09091240181E0E4
:10075000992309F080E0882F90E09A83898303C071
:100760001A821982000089819A81009759F00197B5
:1007700051F49091210181E0992309F080E0809368
:10078000210101C0000089819A810F900F90DF91B3
:10079000CF910895CF93DF9300D0CDB7DEB79A8382
:1007A000898389819A81009719F0019761F016C0B9
:1007B0009091240181E0992309F080E0882F90E056
:1007C0009A8389830EC09091240181E0992309F0D6
:1007D00080E0882F90E09A83898303C01A8219826F
:1007E000000089819A81009759F0019751F4909106
:1007F000220181E0992309F080E08093220101C069
:10080000000089819A810F900F90DF91CF91089518
:10081000CF93DF9300D0CDB7DEB79A8389838981E8
:100820009A81892B19F41A82198203C01A821982BB
:10083000000089819A81892B79F4809123018F317D
:1008400031F085E290E020E8FC01208304C085E2DD
:1008500090E0FC011082000089819A810F900F9036
:10086000DF91CF910895CF93DF9300D01F92CDB742
:10087000DEB79B838A838A819B81892B09F063C0C1
:100880000E941C0189838981882F90E0092E000C29
:10089000AA0BBB0B40E050E024E430E0841B950B36
:1008A0002817390708F448C08A5B9F4FFC010C9455
:1008B000BA068FE18093230143C081E08093230136
:1008C0003FC082E0809323013BC083E080932301FB
:1008D00037C084E08093230133C085E080932301F7
:1008E0002FC086E0809323012BC087E080932301F3
:1008F00027C088E08093230123C089E080932301EF
:100900001FC08AE0809323011BC08BE080932301EA
:1009100017C08CE08093230113C08DE080932301E6
:100920000FC08EE0809323010BC01092230108C0FA
:100930008FE08093230104C08BE1809323010000AA
:100940001B821A8203C01B821A82000000008A8167
:100950009B810F900F900F90DF91CF9108950F938F
:100960001F93CF93DF93CDB7DEB763970FB6F8949D
:10097000DEBF0FBECDBF81E290E0FC01108282E2BB
:1009800090E02FEFFC01208384E290E02FEFFC0148
:10099000208385E290E0FC01108287E290E020EF66
:1009A000FC01208388E290E02FE0FC0120838AE0B4
:1009B000E2E1F1E0DE011A9601900D928A95E1F7ED
:1009C00085E090E098878F838FEF89878985809372
:1009D000250182E390E0A0E0B0E0809326019093AF
:1009E0002701A0932801B0932901809126019091BD
:1009F0002701A0912801B091290180932A019093A9
:100A00002B01A0932C01B0932D018BE393E09093E5
:100A10002F0180932E0189858093300184EF91E02E
:100A2000A0E0B0E08093310190933201A0933301B4
:100A3000B09334018091310190913201A091330142
:100A4000B09134018093350190933601A093370122
:100A5000B09338018CE893E090933A018093390188
:100A6000898580933B0188EE93E0A0E0B0E080931D
:100A70003C0190933D01A0933E01B0933F018091D2
:100A80003C0190913D01A0913E01B0913F018093C6
:100A9000400190934101A0934201B09343018AEC3D
:100AA00093E09093450180934401898580934601AA
:100AB0008AE090E0A0E0B0E0809347019093480185
:100AC000A0934901B0934A01809147019091480158
:100AD000A0914901B0914A0180934B0190934C0140
:100AE000A0934D01B0934E0188E094E090935001A3
:100AF00080934F0189858093510184E690E0A0E0C6
:100B0000B0E08093520190935301A0935401B093AD
:100B100055018091520190915301A0915401B091DF
:100B200055018093560190935701A0935801B093BB
:100B3000590183E394E090935B0180935A018A8585
:100B40009B85FC0181819281A381B48189839A83F1
:100B5000AB83BC8381E090E09E838D8325C08D8133
:100B60009E81880F991F9E012F5F3F4F820F931F19
:100B70000996FC0180819181FC01218132814381B0
:100B8000548189819A81AB81BC81BC01CD010E94D5
:100B90001002DC01CB0189839A83AB83BC838D81F6
:100BA0009E8101969E838D832D813E818F819885C4
:100BB00028173907A0F289819A81AB81BC81BC01D9
:100BC000CD010E945D020E948B021E821D82A0C088
:100BD0008D819E81880F991F9E012F5F3F4F820F4D
:100BE000931F0996FC0180819181FC01258136814A
:100BF000478150858D819E81880F991FBE016F5F4F
:100C00007F4F860F971F0996FC0180819181FC011F
:100C100081819281A381B481281739074A075B0734
:100C200009F045C08D819E81880F991F9E012F5F1D
:100C30003F4F820F931F0996FC01008111818D8126
:100C40009E81880F991F9E012F5F3F4F820F931F38
:100C50000996FC0180819181FC01218532858D817D
:100C60009E81880F991FAE014F5F5F4F840F951FC4
:100C70000996FC0180819181FC018081082E000C85
:100C8000990BF9010995F80180838D819E81880F68
:100C9000991F9E012F5F3F4F820F931F0996FC0102
:100CA00080819181FC0115821682178210868D81C8
:100CB0009E81880F991F9E012F5F3F4F820F931FC8
:100CC0000996FC01608171818D819E81880F991F39
:100CD0009E012F5F3F4F820F931F0996FC01808179
:100CE0009181FC01258136814781508589819A81D6
:100CF000AB81BC81820F931FA41FB51FFB018583AD
:100D00009683A783B0878D819E8101969E838D8374
:100D10002D813E818F8198852817390708F458CF97
:100D2000000080911C018823E1F310921C014DCF3B
:100D3000A1E21A2EAA1BBB1BFD010DC0AA1FBB1FDF
:100D4000EE1FFF1FA217B307E407F50720F0A21B51
:100D5000B30BE40BF50B661F771F881F991F1A94BE
:100D600069F760957095809590959B01AC01BD01E8
:100D7000CF010895EE0FFF1F0024001C0BBE07904B
:0A0D8000F691E02D0994F894FFCFDE
:100D8A000000000200000000AC00000000000100AA
:0C0D9A000000250130013B014601510121
:00000001FF
